:1001D500E4F5B1F5B1F5B3F5B4F5ACF5ADFF7EC217
:1001E5007D01FC1200F5438E021508C2927F2C7E1C
:1001F500017D007C0012022BD2927F2C7E017D00B6
:100205007C0012022B7F551203D675ACFFE4F5ADC9
:10021500F5ACF5AD30B004D2908002C290740625DD
:0502250008F50880C48B
:01022A0022B1
:10039300538EF7438901D28CEF4E6012758AF37541
:1003A3008CFF308DFDC28DEF1F70011E80EAC28C61
:0103B3002227
:1002C6008F108E0F8D0E8C0D538EF7438901D28CB5
:1002D600E4FFFEFDFCAB10AA0FA90EA80DC3120089
:1002E600D16025758ACA758CFA308DFDC28D74FF72
:1002F6002510F510E50F34FFF50FE50E34FFF50E6A
:0B030600E50D34FFF50D80C8C28C220D
:100311008F148E138D128C11538EEF438910D28E50
:10032100E4FFFEFDFCAB14AA13A912A811C312002D
:10033100D16025758BCA758DFA308FFDC28F74FF20
:100341002514F514E51334FFF513E51234FFF51206
:0B035100E51134FFF51180C8C28E22B8
:10022B008F0C8E0B8D0A8C0953C9BF53C9DF43C981
:10023B0010D2CAE4FFFEFDFCAB0CAA0BA90AA8095D
:10024B00C31200D1602575CC6075CDF030CFFDC2E7
:10025B00CF74FF250CF50CE50B34FFF50BE50A34D9
:0E026B00FFF50AE50934FFF50980C8C2CA2272
:100279008F188E178D168C1575C40243C408E4FFB8
:10028900FEFDFCAB18AA17A916A815C31200D16068
:100299002875C56075C6F0E5C430E4FB53C4EF7436
:1002A900FF2518F518E51734FFF517E51634FFF59E
:0D02B90016E51534FFF51580C553C4F72276
:10035C0053B1BF53B2BF53B17F53B27F7598524361
:10036C008920438780438E1053C4DFAB07AA06A9AC
:10037C0005A8047F407E427D0F7C0012003FEF04F5
:07038C00F404F58DD28E226E
:1000F5008F0C8E0B8D0A8C0953B1BF53B2BF53B110
:100105007F53B27F75985243878053C4F843C42008
:10011500AB0CAA0BA90AA8097F407E427D0F7C0083
:1001250012003FC374FF9FFF74FF9EFEE49DFDE434
:100135009CFC78081200E28FC6AB0CAA0BA90AA892
:10014500097F407E427D0F7C0012003FC374FF9FF4
:10015500FF74FF9EFEE49DFDE49CFCEFE48FC54328
:03016500C40822A9
:0703CE003098FDAF99C298C1
:0103D5002205
:0803D600C2998F993099FD22B4
:100168008F1C8E1B8D1A8C1953B1FB53B2FB53B3E2
:10017800BF53B4BF75F85253C4F8AB1CAA1BA91AD5
:10018800A8197F407E427D0F7C0012003FC374FF98
:100198009FFF74FF9EFEE49DFDE49CFC780812001E
:1001A800E28FC6AB1CAA1BA91AA8197F407E427D04
:1001B8000F7C0012003FC374FF9FFF74FF9EFEE494
:0D01C8009DFDE49CFCEFE48FC543C40822BC
:0703DE0030F8FDAF9AC2F8F0
:0103E50022F5
:0803E600C2F98F9A30F9FD22E3
:030000000203B444
:1003B400787FE4F6D8FD9000007FFF7E03E4F0A38D
:0A03C400DFFCDEFA7581200201D58E
:1000030075F008758200EF2FFFEE33FECD33CDCCB4
:1000130033CCC58233C5829BED9AEC99E582984037
:100023000CF582EE9BFEED9AFDEC99FC0FD5F0D614
:10003300E4CEFBE4CDFAE4CCF9A88222B800C1B93E
:100043000059BA002DEC8BF084CFCECDFCE5F0CB7C
:10005300F97818EF2FFFEE33FEED33FDEC33FCEBB5
:1000630033FB10D703994004EB99FB0FD8E5E4F970
:10007300FA227818EF2FFFEE33FEED33FDEC33FC5D
:10008300C933C910D7059BE99A4007EC9BFCE99A51
:10009300F90FD8E0E4C9FAE4CCFB2275F010EF2F96
:1000A300FFEE33FEED33FDCC33CCC833C810D70796
:1000B3009BEC9AE899400AED9BFDEC9AFCE899F8D1
:0E00C3000FD5F0DAE4CDFBE4CCFAE4C8F92264
:1000D100EB9FF5F0EA9E42F0E99D42F0E89C45F085
:0100E10022FC
:1000E200E8600FECC313FCED13FDEE13FEEF13FFFC
:0300F200D8F12220
:00000001FF
