:100EA6000A2056616C7565203D20307825627800F1
:03005B00020DE3B0
:100DE300C0E0C0F0C083C082C0D075D000C000C0D6
:100DF30001C002C003C004C005C006C007C2EF7B28
:100E0300FF7A0E79A685C30B120862A2B0B392B023
:100E1300D007D006D005D004D003D002D001D00033
:0B0E2300D0D0D082D083D0F0D0E032DD
:100D9300E4F5B1F5B1F5B3F5B4F5ACF5AD7F807E0F
:100DA30025FDFC120E2E43DE0153E8F043B38053BE
:100DB300B47FE4F5F643F60143E10153E8DF53E87A
:100DC300EF53E1F753E1FB43E10275D10775D9FF17
:100DD30075D20275DAFFD2DED2DFD2AED2AF80FE99
:100E2E0053B1BF53B2BF53B17F53B27F7598524384
:100E3E008920438780438E1053C4DFAB07AA06A9CF
:100E4E0005A8047F407E427D0F7C00120B98EF04B4
:070E5E00F404F58DD28E2291
:100CCB008F1F8E1E8D1D8C1C53B1BF53B2BF53B1E2
:100CDB007F53B27F75985243878053C4F843C42027
:100CEB00AB1FAA1EA91DA81C7F407E427D0F7C0056
:100CFB00120B98C374FF9FFF74FF9EFEE49DFDE4EF
:100D0B009CFC7808120C2A8FC6AB1FAA1EA91DA823
:100D1B001C7F407E427D0F7C00120B98C374FF9F9B
:070D2B00FF8FC543C408223D
:070EB6003098FDAF99C298CE
:010EBD002212
:080EBE00C2998F993099FD22C1
:100D32008F258E248D238C2253B1FB53B2FB53B3E8
:100D4200BF53B4BF75F85253C4F8AB25AA24A923E4
:100D5200A8227F407E427D0F7C00120B98C374FF55
:100D62009FFF74FF9EFEE49DFDE49CFC7808120C3C
:100D72002A8FC6AB25AA24A923A8227F407E427DC2
:100D82000F7C00120B98C374FF9FFF8FC543C408EA
:010D9200223E
:070EC60030F8FDAF9AC2F8FD
:010ECD002202
:080ECE00C2F98F9A30F9FD22F0
:03000000020E8C61
:100E8C00787FE4F6D8FD9000007FFF7E03E4F0A3AA
:0A0E9C00DFFCDEFA758125020D93DC
:100B5C0075F008758200EF2FFFEE33FECD33CDCC50
:100B6C0033CCC58233C5829BED9AEC99E5829840D3
:100B7C000CF582EE9BFEED9AFDEC99FC0FD5F0D6B0
:100B8C00E4CEFBE4CDFAE4CCF9A88222B800C1B9DA
:100B9C000059BA002DEC8BF084CFCECDFCE5F0CB18
:100BAC00F97818EF2FFFEE33FEED33FDEC33FCEB51
:100BBC0033FB10D703994004EB99FB0FD8E5E4F90C
:100BCC00FA227818EF2FFFEE33FEED33FDEC33FCF9
:100BDC00C933C910D7059BE99A4007EC9BFCE99AED
:100BEC00F90FD8E0E4C9FAE4CCFB2275F010EF2F32
:100BFC00FFEE33FEED33FDCC33CCC833C810D70732
:100C0C009BEC9AE899400AED9BFDEC9AFCE899F86C
:0E0C1C000FD5F0DAE4CDFBE4CCFAE4C8F922FF
:100C2A00E8600FECC313FCED13FDEE13FEEF13FFA8
:030C3A00D8F122CC
:10080000E517240BF8E60517227808300702780B65
:10081000E475F001120C95020C3D2000EB7F2ED206
:10082000008018EF540F2490D43440D4FF30040BD0
:10083000EF24BFB41A0050032461FFE518600215CD
:1008400018051BE51B7002051A30070D7808E475C2
:10085000F001120C95EF020C83020E657403D207AF
:100860008003E4C207F5178B088A09890AE4F518A2
:10087000F51AF51BE51860077F2012083B80F57517
:1008800019FFC201C200C202C203C205C206C208E9
:10089000120809FF700D3007057F0012084CAF1BCE
:1008A000AE1A22B4255FC2D5C204120809FF24D0B3
:1008B000B40A00501A75F00A781830D50508B6FF4A
:1008C0000106C6A426F620D5047002D20380D924DE
:1008D000CFB41A00EF5004C2E5D204020A4CD20190
:1008E00080C6D20080C0D20280BCD2D580BAD205E8
:1008F00080B47F2012083B2002077401B518004025
:10090000F1120800FF12083B020874D208D20680D8
:1009100095120800FB120800FA120800F94A4B7001
:1009200006791D7A0B7BFF20022EE518602A7E00D7
:100930008E82758300120C5660060EEE651970F0FB
:10094000C2D5EBC0E0EAC0E0E9C0E0EE120A93D005
:10095000E0F9D0E0FAD0E0FB120C3DFF60AAEBC05A
:10096000E0EAC0E0E9C0E012083BD0E02401F9D0A1
:10097000E03400FAD0E0FBE5190460DCD519D98039
:10098000877BFF7A0A798FD202809C791080027966
:1009900008C206C2088008D2D5790A8004790AC242
:1009A000D5E519047002F519E4FAFDFEFF120800FE
:1009B000FC7B08200113120800FD7B1030000A1296
:1009C0000800FE120800FF7B20EC3382D592D55040
:1009D00013C3E43000069FFFE49EFEE42001039D64
:1009E000FDE49CFCE4CBF8C201EC700CCFCECDCC86
:1009F000E824F8F870F38017C3EF33FFEE33FEED11
:100A000033FDEC33FCEB33FB994002FB0FD8E9EBF1
:100A1000300105F8D0E0C448B201C0E00AEC4D4E08
:100A20004F78207B0070C2EAB5190040BCC0E012CC
:100A30000A95D0F0D0E0200104C4C0E0C4B201C0E7
:100A4000F0120824D0F0D5F0EB020874120CA509BE
:100A50001153098B5808E24C08DE42098F4F099761
:0F0A60004409974908F743099D550981460981C3
:100A6F00450981470B3D5008E62D08EA2E090D2B4D
:100A7F0008EE23090B200B262A08A64800000905BB
:100A8F003F3F3F00790AA2D5200314300509B91062
:100A9F00020404B9080104A2D52006025001042063
:100AAF0002689202B518005034C0E07F203003195D
:100ABF007F30A20272067205500F120AECC202C2F8
:100ACF0006C205C2087F30800F300503E9C0E0126F
:100ADF00083B300503D0E0F9D0E0B518CC3005174E
:100AEF007F30B9100C12083B7F583004077F788095
:100AFF0003B9080312083B3002057F2D02083B7F24
:100B0F00202008F87F2B2006F322920280CF286E38
:100B1F00756C6C2900D2011208003001F8C20178FF
:100B2F001830D50108F60208A62D5043495812086F
:100B3F00002403B405004001E4900B389312082CF5
:0D0B4F00743A12082CD20375180402098BA9
:100C3D00BB010689828A83E0225002E722BBFE02B5
:090C4D00E32289828A83E49322E8
:100C5600BB010CE58229F582E5833AF583E0225053
:100C660006E92582F8E622BBFE06E92582F8E2229D
:0D0C7600E58229F582E5833AF583E49322B7
:100C8300BB010689828A83F0225002F722BBFE0150
:020C9300F3224A
:100C9500FAE6FB0808E6F925F0F618E6CA3AF62260
:100CA500D083D082F8E4937012740193700DA3A3DE
:100CB50093F8740193F5828883E4737402936860F2
:060CC500EFA3A3A380DFF2
:100E6500EFB40A07740D120E70740A309811A89920
:100E7500B8130CC2983098FDA899C298B811F630ED
:070E850099FDC299F59922C5
:00000001FF
