:100B5D007F807E257D007C00120AEB7F33120B77A0
:020B6D0080F90D
:03000000020B43AD
:100B4300787FE4F6D8FD9000007FFF7E03E4F0A3F6
:0A0B5300DFFCDEFA758120020B5D65
:100AEB0053B1BF53B2BF53B17F53B27F75985243CB
:100AFB008920438780438E1053C4DFAB07AA06A916
:100B0B0005A8047F407E427D0F7C0012083CEF0459
:070B1B00F404F58DD28E22D7
:1008F2008F0B8E0A8D098C0853B1BF53B2BF53B10F
:100902007F53B27F75985243878053C4F843C42003
:10091200AB0BAA0AA909A8087F407E427D0F7C0082
:1009220012083CC374FF9FFF74FF9EFEE49DFDE42A
:100932009CFC78081208DF8FC6AB0BAA0AA909A88B
:10094200087F407E427D0F7C0012083CC374FF9FEB
:07095200FF8FC543C408221A
:070B6F003098FDAF99C29818
:010B7600225C
:080B7700C2998F993099FD220B
:100959008F0F8E0E8D0D8C0C53B1FB53B2FB53B31D
:10096900BF53B4BF75F85253C4F8AB0FAA0EA90D03
:10097900A80C7F407E427D0F7C0012083CC374FFA7
:100989009FFF74FF9EFEE49DFDE49CFC780812081D
:10099900DF8FC6AB0FAA0EA90DA80C7F407E427D42
:1009A9000F7C0012083CC374FF9FFF8FC543C40826
:0109B900221B
:070B7F0030F8FDAF9AC2F847
:010B8600224C
:080B8700C2F98F9A30F9FD223A
:100B2200538EF7438901D28CEF4E6012758AF375AA
:100B32008CFF308DFDC28DEF1F70ED1E80EAC28CDE
:010B42002290
:100A55008F138E128D118C10538EF7438901D28C12
:100A6500E4FFFEFDFCAB13AA12A911A810C31208DE
:100A7500CE6025758ACA758CFA308DFDC28DE51359
:100A850024FFF513E51234FFF512E51134FFF511D6
:0B0A9500E51034FFF51080C8C28C2271
:100AA0008F178E168D158C14538EEF438910D28EAE
:100AB000E4FFFEFDFCAB17AA16A915A814C3120883
:100AC000CE6025758BCA758DFA308FFDC28FE51704
:100AD00024FFF517E51634FFF516E51534FFF51577
:0B0AE000E51434FFF51480C8C28E221C
:1009BA008F1B8E1A8D198C1853C9BF53C9DF43C9AF
:1009CA0010D2CAE4FFFEFDFCAB1BAA1AA919A8188B
:1009DA00C31208CE602575CC6075CDF030CFFDC24C
:1009EA00CFE51B24FFF51BE51A34FFF51AE5193488
:0E09FA00FFF519E51834FFF51880C8C2CA22AF
:100A08008F1F8E1E8D1D8C1C75C40243C408E4FF05
:100A1800FEFDFCAB1FAA1EA91DA81CC31208CE60B0
:100A28002875C56075C6F0E5C430E4FB53C4EFE52E
:100A38001F24FFF51FE51E34FFF51EE51D34FFF5E5
:0D0A48001DE51C34FFF51C80C553C4F722CA
:1008000075F008758200EF2FFFEE33FECD33CDCCAF
:1008100033CCC58233C5829BED9AEC99E582984032
:100820000CF582EE9BFEED9AFDEC99FC0FD5F0D60F
:10083000E4CEFBE4CDFAE4CCF9A88222B800C1B939
:100840000059BA002DEC8BF084CFCECDFCE5F0CB77
:10085000F97818EF2FFFEE33FEED33FDEC33FCEBB0
:1008600033FB10D703994004EB99FB0FD8E5E4F96B
:10087000FA227818EF2FFFEE33FEED33FDEC33FC58
:10088000C933C910D7059BE99A4007EC9BFCE99A4C
:10089000F90FD8E0E4C9FAE4CCFB2275F010EF2F91
:1008A000FFEE33FEED33FDCC33CCC833C810D70791
:1008B0009BEC9AE899400AED9BFDEC9AFCE899F8CC
:0E08C0000FD5F0DAE4CDFBE4CCFAE4C8F9225F
:1008CE00EB9FF5F0EA9E42F0E99D42F0E89C45F080
:0108DE0022F7
:1008DF00E8600FECC313FCED13FDEE13FEEF13FFF7
:0308EF00D8F1221B
:00000001FF
