:0300000002038474
:0C038400787FE4F6D8FD7581280203CBD9
:0A0FF600FFFFFFFFFFFFF05AA5AF59
:10041000041500119400041F00038400012800014A
:100420000900010800010A00041100000000042472
:1004300001A39DE0012300020B0F000219161C020C
:0F0440000D17FC021B0D20020F1D38021D078037
:1000030012047DC29143FA0253FAFB43F20453FAFA
:10001300EF43F210C290C280C28543FA0143F92133
:10002300E4FFFEFDFCAB27AA26A925A824C31204DE
:100033006C700CF509C280C285C290C291F528305C
:100043009403750A01209475E50A6401706F7F02B9
:10005300FE12045020945FE50A64017059F50AE525
:10006300097046752801D2917527E075269D75257F
:10007300A375240175090175145C75133875120293
:10008300F511750B0FF50C751916751A1C750D17EF
:10009300750EFC751B0D751C20750F1D75103875BD
:1000A3001D07751E80F523800DE4F509C290C285F6
:1000B300C280C291F5287F647E00120450E5096472
:1000C300016003020023E52724FFF527E52634FF1B
:1000D300F526E52534FFF525E52434FFF524309294
:1000E30003750801209234E5086401702E7F02FE37
:1000F300120450209216E508B401117527E0752605
:100103009D7525A3752401E4F5080528E528B404A5
:10011300037528017F647E00120450E4FFFEFDFC9A
:10012300AB14AA13A912A811C312046C6021E5141D
:1001330024FFF514E51334FFF513E51234FFF5122C
:10014300E51134FFF5117F027E0012045080037520
:100153002301E52824FE600F14601424027018D2D2
:1001630090C285C2808018C290D285C2808010C29E
:1001730090C285D2808008C280C285C290C291E5B8
:100183002364016003020023E52824FE60791470D0
:10019300030202772402600302035D750D17750ED7
:1001A300FC751B0D751C20750F1D751038751D070B
:1001B300751E80E50C450B6011D291E50C150C7092
:1001C30002150B7F017E00120450E51A45196017D2
:1001D300E50C450B7011C291E51A151A7002151939
:1001E3007F017E00120450E50C450B6003020023DF
:1001F300E51A45196003020023750B0FF50C7519F9
:1002030016751A1C020023750B0F750C0075191651
:10021300751A1C750F1D751038751D07751E80E541
:100223000E450D6011D291E50E150E7002150D7F6E
:10023300017E00120450E51C451B6017E50E450DB9
:100243007011E51C151C7002151BC2917F017E0005
:10025300120450E50E450D6003020023E51C451B07
:100263006003020023750D18750E60751B0D751C58
:1002730020020023750B0F750C00751916751A1CD7
:10028300750D17750EFC751B0D751C20E4FFFEFD27
:10029300FCAB18AA17A916A815C312046C704EC29A
:1002A30091E52224FFF522E52134FFF521E52034F1
:1002B300FFF520E51F34FFF51F7F017E0012045078
:1002C300E4FFFEFDFCAB22AA21A920A81FC3120450
:1002D3006C6003020023F518751794751611F51554
:1002E300F522752184752003F51F020023E51824E8
:1002F300FFF518E51734FFF517E51634FFF516E596
:100303001534FFF515E510450F6011D291E5101571
:10031300107002150F7F017E00120450E51E451D6B
:100323006017E510450F7011E51E151E7002151DAF
:10033300C2917F017E00120450E510450F60030255
:100343000023E51E451D6003020023750F1D751074
:1003530038751D07751E80020023750B0F750C0081
:10036300751916751A1C750D17750EFC751B0D7511
:100373001C20750F1D751038751D07751E80020032
:010383002356
:10045000EF1FAC0670011E4C600F758C83E4F58AAB
:0C046000D28C308DFDC28D80E7C28C2252
:10047D00E4F58CF58A43890543E770C28DC28C2261
:10039000020003E493A3F8E493A34003F68001F280
:1003A00008DFF48029E493A3F85407240CC8C3336E
:1003B000C4540F4420C8834004F456800146F6DF3D
:1003C000E4800B0102040810204080900410E47EB9
:1003D000019360BCA3FF543F30E509541FFEE49332
:1003E000A360010ECF54C025E060A840B8E493A3F9
:1003F000FAE493A3F8E493A3C8C582C8CAC583CA24
:10040000F0A3C8C582C8CAC583CADFE9DEE780BEDB
:01044F0000AC
:10046C00EB9FF5F0EA9E42F0E99D42F0E89C45F0E6
:01047C00225D
:00000001FF
