:030000000206FAFB
:0C06FA00787FE4F6D8FD758165020741A9
:0A0FF600FFFFFFFFFFFFF05AA5AF59
:100E210075080975865A12021C43A880120E5512C4
:0A0E31000508120B51120C4880F264
:0309570001650136
:060E8600AE071FEE600C38
:0C0E8C00E4F52AAE2A152AEE60F080F78B
:010E98002237
:060E6F00AE071FEE60104B
:0E0E7500752A02AE2A152AEE60030080F600F0
:030E830080EA22E0
:100E3B00C28CC28DE565B40105758CFC8003758C85
:0A0E4B00FDE4F58AD28C308DFD2203
:100EBE00C28CC28D758CFE758AE0D28C308DFD226F
:100ECE00C28CC28D758CFFE4F58AD28C308DFD22DA
:100DB200EF1FAC0670011E4C600F758C83E4F58A40
:0C0DC200D28C308DFDC28D80E7C28C22E7
:100EDE00E4F58CF58A43890543E770C28DC28C22F6
:09095A00015F0001610001600071
:090F3B00D28753F17F43F98022B3
:0A0F2700C287120E3BD287020E3B78
:0A0F3100D287120E3BC287020E3B6E
:100D0E007F12D28753F97F30870CDF05755F018024
:100D1E0016E4F55F80F1120E3B120E3B208705752F
:0A0D2E005F028003E4F55F43F980E3
:010D38002298
:100C7D007F127E00D28753F97F208713EF1F7001FB
:100C8D001EEF4E7005755F038015E4F55F80EA1267
:100C9D000E3B120E3B208704755F0422E4F55F4383
:020CAD00F980CC
:010CAF002222
:020D39008F2AFF
:100D3B00752B80E52B601F552A6009C287120E3B6D
:100D4B00D2878007D287120E3BC287120E3BE52B50
:060D5B00C313F52B80DD3F
:010D6100226F
:100A6A00751B80E4F51CD28753F97FE51B603C12A5
:100A7A000ECE208714120E3B208705755F05801263
:100A8A00E4F55FE51B421C8017120E3B308709759F
:100A9A005F0643F9807F0022E4F55FE51BF4521CF0
:100AAA00120EBEE51BC313F51B80C043F980AF1CB1
:010ABA002219
:10000300C2877F04120E86D2877F50120E6FC2877B
:100013007F04120E867F55120D39120F27020C7DB5
:060803008B208A218922EE
:10080900ECF527EDF5287F96120CE01200037FA086
:10081900120D39120F27120D0E7F6C120D39120F9E
:1008290027120D0EAF27120D39120F27120D0EAF19
:1008390028120D39120F27120D0EE4F526E526C3ED
:1008490095255028AB20AA21A922852682758300E7
:1008590012079FFF120D39E52514B52605120F3130
:100869008003120F27120D0E052680D17F147E00FA
:03087900020DB2BB
:100CE0008F291200037FA0120D39120F27120D0E4B
:100CF000AF29120D39120F31120D0EE529646D6006
:0E0D000005E529B467077F147E00120DB222AC
:080ABB008F1A8E198D188C179B
:100AC30078181207DD8F1BAF1AAE19AD18AC177863
:100AD300101207DDAB07AF1AAE19AD18AC177808C3
:100AE3001207DD851A1C8F1D8B1E855B1F75650123
:100AF3007B007A00791C752504E4FDFC1208037F52
:040B030091020CE06F
:10044100E4F5651200037FA0120D39120F27120D7A
:100451000E7F03120D39120F27120D0EE4FF120D3C
:1004610039120F27120D0EE4FF120D39120F271248
:100471000D0E120A6A8F17120F27120D0E120A6A39
:100481008F18120F27120D0E120A6A8F19120F27D9
:10049100120D0E120A6A8F1A120F31120D0E851AE1
:1004A1005BE4F51AAF19FCFDFE78101207F0C004E9
:1004B100C005C006C007AF1AE4FCFDFE781812079C
:1004C100F0D003D002D001D000EF4BFFEE4AFEED99
:1004D10049FDEC48FCC004C005C006C007AF18E4E4
:1004E100FCFDFE78081207F0D003D002D001D00045
:1004F100EF4BFBEE4AFAED49F9EC48F8EB4517FFF3
:06050100EAFEE9FDE8FC42
:0105070022D1
:100C4800E5566030AF55AE54AD53AC52120ABB12E4
:100C58000441AB55AA54A953A852C31207CC700734
:100C6800F556F560F561220560E560B41406E4F513
:050C780060756101221E
:1003410000316253C4F5A697B988DBEA7D4C1F2EB4
:100351004372211087B6E5D4FACB98A93E0F5C6DA4
:1003610086B7E4D5427320113F0E5D6CFBCA99A894
:10037100C5F4A796013063527C4D1E2FB889DAEB84
:100381003D0C5F6EF9C89BAA84B5E6D74071221374
:100391007E4F1C2DBA8BD8E9C7F6A5940332615064
:1003A100BB8AD9E87F4E1D2C02336051C6F7A49554
:1003B100F8C99AAB3C0D5E6F4170231285B4E7D644
:1003C1007A4B1829BE8FDCEDC3F2A1900736655434
:1003D10039085B6AFDCC9FAE80B1E2D34475261724
:1003E100FCCD9EAF38095A6B4574271681B0E3D214
:1003F100BF8EDDEC7B4A192806376455C2F3A09104
:100401004776251483B2E1D0FECF9CAD3A0B5869F3
:1004110004356657C0F1A293BD8CDFEE79481B2AE3
:10042100C1F0A3920534675678491A2BBC8DDEEFD3
:1004310082B3E0D1467724153B0A5968FFCE9DACC3
:0C096300015800015700015A0101590021
:060D62008B248A2589267E
:100D6800E4FFAE051DEE6019AB240526E526AA258D
:100D78007002052514F91207866F90034193FF80CE
:010D8800E189
:010D89002247
:08065E008B178A1889198D1A07
:10066600851A1CD2827F1E120E6F53A8EF751B01CE
:10067600E51A2401FFE433FEC3E51B9FEE6480F810
:100686007480985020AB17AA18A919120786FF7410
:100696001C251BF8A60774012519F519E43518F56C
:1006A60018051B80CB7B007A00791CE51A04FD1225
:1006B6000D62741D251AF8A6077FA5120F11E4F521
:1006C6001BE51A2402FFE433FEC3E51B9FEE64809C
:1006D600F8748098500E741C251BF8E6FF120F1153
:1006E600051B80DD7F5A120F1143A8107F1E120EC4
:0306F6006FC2824E
:0106F90022DE
:100EAC007558017B007A00792CAD3E120D62E4F589
:010EBC0058DD
:010EBD002212
:100B5100E53D603DE4F53D755801120EACEF702E98
:100B61007F01E52C24FE601414601624F86017241C
:100B7100FC6018240E7017120BD18012120EFB802C
:100B81000D120CB08008120F068003120B93E4F5CE
:010B9100580B
:010B92002240
:100BD100AF558F09AF55AE54AD53AC5278081207DB
:100BE100DD8F0AAF55AE54AD53AC5278101207DD0C
:100BF1008F0BAF55AE54AD53AC5278181207DD8F41
:0C0C01000C7B007A0079097D0402065E7D
:0B0EFB007B007A0079577D0102065E43
:100CB000856409E563F50AE564AE637810CEC31375
:100CC000CE13D8F9F50BE564AE637818CEC313CE16
:100CD00013D8F9F50C7B007A0079097D0402065ED1
:0B0F06007B007A00795B7D0102065E33
:100B9300852E5A852F46853041853159853251E559
:100BA30046600CE5437004C2818006D2818002C294
:100BB30081855E0985620A855B0B854C0C85570D23
:0E0BC30085450E7B007A0079097D0602065EEC
:09096F00013B00013C00013D00C8
:100D8A00D285D28243F92453F9BF53E4FC53F1DBF1
:100D9A0043F14053877F75985075D88075BA0375AB
:080DAA00AAF3C28243A8102243
:0B0F11008F99E59830E1FB5398FD221A
:030023000209BF10
:1009BF00C0E0C0D075D000C000309844C298E53C6C
:1009CF00700BE59964A57038753C018033E5996427
:1009DF005A6021E5587015E53BC3940F500E753DD5
:1009EF0000742C253BF8A699053B8014753C0075C7
:1009FF003B00800C853B3E753C00753B00753D010F
:070A0F00D000D0D0D0E0328E
:0C097800015C00015D00015E00015B00FD
:100C0D007F021205C1C3EF9464EE94004009D3EF47
:100C1D009468EE941040207F0A120E867F02120512
:100C2D00C1C3EF9464EE94004009D3EF9468EE9441
:0A0C3D00104007755C0122E4F55C2D
:010C4700228A
:10087C007F011205C1D3EF9410EE940E4004755B0A
:10088C000122C3EF940FEE940E500BEF9432EE94C2
:10089C000B4003755B02C3EF9431EE940B500BEFDE
:1008AC0094FFEE94074003755B03C3EF9430EE9412
:1008BC000B500BEF944CEE94044003755B04C3EFA8
:1008CC009464EE940050177F0A120E867F01120575
:1008DC00C1C3EF9464EE94005007755D0122E4F5FA
:0108EC005DAE
:0108ED0022E8
:100E5500120C0D12087CE55D7008E55C7004E56117
:0A0E65006004755E0122E4F55E22D0
:0F098400045200000000015101014F00014E001C
:0B0F1C00C287C28143F98253F17D229D
:020026008F0B3E
:10002800E4F50EF50F751001751101F512F513F5CC
:1000380014751501E50BD39401400575160180036D
:10004800E4F5167B007A0079107D0112065EE50B57
:100058006067750CFF750DFAE4F50EE5127047E55B
:100068000D150D7002150CE590F430E0107F0A12A2
:100078000E86E590F430E005E4F5158029E53D604D
:1000880011E4F53D120EACEF7008E52CB4050375CC
:100098001201E50D450C70C3050E750CFF750DFAC0
:1000A800E50EB40FB622E4F512150BFB7A007915AC
:1000B8007D0112065EE5157095E5166021E551B4DF
:1000C8000106AB157D01800FE551C39409507CE50D
:1000D800511425E0FDAB15AF0B120B07806DE551F0
:1000E80014B4080050659000FC75F003A4C583257E
:1000F800F0C5837302011402011A020120020126CD
:1001080002012C02013202013802013EE5552402A7
:100118008028E55524088022E555240C801CE555E7
:1001280024108016E55524148010E555241E800AF5
:10013800E55524288004E5552432F555E43554F571
:1001480054E43553F553E43552F552120441C3E5EE
:10015800559FFFE5549EFEE5539DFDE5529CFCE44A
:100168007B41FAF9F8C31207CC4020120441C3EFCF
:100178009555FFEE9554FEED9553FDEC9552FCE434
:100188007B41FAF9F8C31207CC500BAF55AE54AD0A
:1001980053AC52120ABB7F9F7EBB7D0D7C00AB55D2
:1001A800AA54A953A852D31207CC40037557017F0C
:1001B8003F7E427D0F7C00AB55AA54A953A852D369
:1001C8001207CC40087545017557098003E4F545C9
:1001D8007F037E00120DB2AF55AE54AD53AC521230
:1001E8000ABB120441AB55AA54A953A852C312071B
:1001F800CC601D054EAF55AE54AD53AC52120ABB80
:100208007F037E00120DB2E54EB414D6E4F54E22FB
:03021800E4F556B4
:01021B0022C0
:100B0700EB7027EF14600D1460102402703BED7535
:100B1700F003801AED75F0028014AF05E4FCFDFECA
:100B2700E5552FF555EE35548013ED75F004A4FF08
:100B3700AEF0E4FCFDE5552FF555E5543EF554EDD3
:0A0B47003553F553EC3552F55222F8
:10021C00D282120EEE120F1C120F3B120EDE120DBA
:10022C008A120E9912087CC282754101D2817FE834
:10023C007E03120DB2C2811204418F558E548D5320
:10024C008C52E55F60030203407F3F7E427D0FFCD2
:10025C00AB55AA54A953A852D31207CC40077545E5
:10026C000175570922E4F5457F9F7EBB7D0DFCABE4
:10027C0055AA54A953A852D31207CC400475570160
:10028C00227FFF7E347D0C7C00AB55AA54A953A869
:10029C0052D31207CC4004755702227F5F7EAE7D8D
:1002AC000A7C00AB55AA54A953A852D31207CC40D0
:1002BC0004755703227FBF7E277D097C00AB55AAAE
:1002CC0054A953A852C31207CC4004755704227F7B
:1002DC001F7EA17D077C00AB55AA54A953A852C31D
:1002EC001207CC4004755705227F7F7E1A7D067C51
:1002FC0000AB55AA54A953A852C31207CC4004759D
:10030C005706227FDF7E937D047C00AB55AA54A94F
:10031C0053A852C31207CC4004755707227F3F7E67
:10032C000D7D037C00AB55AA54A953A852D31207D8
:05033C00CC75570822FA
:10099300014000014700014400014300014D0001F3
:1009A3003F00014800014B00014600014201014C98
:0809B3000002490000014101AE
:0D0EEE0053FAFE53F9FE53F2FE43F10122C8
:100E0600E59025E05402FFE58054014FF4F540E5F6
:0A0E16004065445540F5478540440F
:010E200022AF
:10050800E55A60030205C0120E06E590F420E00AE1
:10051800E5466006E56264056015E562B40306E534
:10052800516409600AE562B40414E551B4090F0581
:100538004BE54BB4960BE4F54B63430180037543DD
:1005480001E544F430E119E53F70151208EEE54481
:1005580030E025E54730E020753F01754D018018F2
:10056800E544F430E1051208EE8003E4F562E54461
:1005780020E005E4F54DF53FE546603CE55E703862
:10058800E5457034E5627003D38001C3402AE56213
:10059800B40503D38001C3401FE54114601424FE51
:1005A80060131460082402700F7F0180027F040228
:0905B8000A16020DCE120DEA2212
:100A1600E544F430E13FE542750902750A58054A96
:100A2600E54A70020549650A7004E54965097033AF
:100A3600E50A24FFF54AE50934FFF549754C01E559
:100A4600596020E4F542F559F54CF546F549F54A65
:100A5600C281020026E4F559F54CF562754201F5AE
:030A660049F54A05
:010A6900226A
:100DCE00E54D6017754C01E5596010E4F54DF55988
:0C0DDE00F54CF546C2817F011200262270
:100DEA00E54D6017754C01E5596010E4F54DF5596C
:0C0DFA00F54CF546C2817F041200262251
:0309BB00016200D6
:1008EE007F031205C18E638F64C3E56494F9E563DB
:1008FE00940D500DE5649424E563940640037562EF
:10090E0001C3E5649423E5639406500EC3E5649435
:10091E00F0E56394044003756203C3E56494EFE568
:10092E00639404500EC3E564945CE5639404400341
:10093E00756204C3E564945BE5639404500AC3E5F1
:09094E0063940040037562052268
:100E990075D20253FAE153F2E143D61E75D50775AF
:030EA900D4402210
:1005C1008FD243D280E4FC43D240E5D230E5FBAF89
:1005D100D3EC25E0240BF8760008A607E5D4540FE8
:1005E100FB7A00EC25E0240BF8E6FE08E6C4F8549B
:1005F1000FC868FFEEC454F048FEEF2BFFEA3EFE41
:10060100EC25E0240BF8A60608A60753D2DF0CBCA4
:1006110005B553D27F7C01EC25E02409F8E6F50904
:1006210008E6F50AEC14FDED25E02409F8E6FE08DC
:10063100E6FFC3E50A9FE5099E500EED25E0240B78
:10064100F8A60608A6071D80DEED25E0240BF8A616
:0C0651000908A60A0CBC06BFAF10AE0FD3
:01065D00227A
:10070600020E21E493A3F8E493A34003F68001F2DA
:1007160008DFF48029E493A3F85407240CC8C333F4
:10072600C4540F4420C8834004F456800146F6DFC3
:10073600E4800B0102040810204080900957E47EF3
:10074600019360BCA3FF543F30E509541FFEE493B8
:10075600A360010ECF54C025E060A840B8E493A37F
:10076600FAE493A3F8E493A3C8C582C8CAC583CAAA
:10077600F0A3C8C582C8CAC583CADFE9DEE780BE62
:0109BE000038
:10078600BB010689828A83E0225002E722BBFE0271
:09079600E32289828A83E49322A4
:10079F00BB010CE58229F582E5833AF583E022500F
:1007AF0006E92582F8E622BBFE06E92582F8E22259
:0D07BF00E58229F582E5833AF583E4932273
:1007CC00EB9FF5F0EA9E42F0E99D42F0E89C45F083
:0107DC0022FA
:1007DD00E8600FECC313FCED13FDEE13FEEF13FFFA
:0307ED00D8F1221E
:1007F000E8600FEFC333FFEE33FEED33FDEC33FC67
:03080000D8F1220A
:00000001FF
