:030000000206F203
:0C06F200787FE4F6D8FD758165020739B9
:0A0FF600FFFFFFFFFFFFF05AA5AF59
:100E1A0075080975865A12021443A880120E4E12DA
:0A0E2A000500120B4A120C4180F281
:030950000165013D
:060E7F00AE071FEE600C3F
:0C0E8500E4F52AAE2A152AEE60F080F792
:010E9100223E
:060E6800AE071FEE601052
:0E0E6E00752A02AE2A152AEE60030080F600F7
:030E7C0080EA22E7
:100E3400C28CC28DE565B40105758CFC8003758C8C
:0A0E4400FDE4F58AD28C308DFD220A
:100EB700C28CC28D758CFE758AE0D28C308DFD2276
:100EC700C28CC28D758CFFE4F58AD28C308DFD22E1
:100DAB00EF1FAC0670011E4C600F758C83E4F58A47
:0C0DBB00D28C308DFDC28D80E7C28C22EE
:100ED700E4F58CF58A43890543E770C28DC28C22FD
:09095300015F0001610001600078
:090F3400D28753F17F43F98022BA
:0A0F2000C287120E34D287020E348D
:0A0F2A00D287120E34C287020E3483
:100D07007F12D28753F97F30870CDF05755F01802B
:100D170016E4F55F80F1120E34120E342087057544
:0A0D27005F028003E4F55F43F980EA
:010D3100229F
:100C76007F127E00D28753F97F208713EF1F700102
:100C86001EEF4E7005755F038015E4F55F80EA126E
:100C96000E34120E34208704755F0422E4F55F4398
:020CA600F980D3
:010CA8002229
:020D32008F2A06
:100D3400752B80E52B601F552A6009C287120E347B
:100D4400D2878007D287120E34C287120E34E52B65
:060D5400C313F52B80DD46
:010D5A002276
:100A6300751B80E4F51CD28753F97FE51B603C12AC
:100A73000EC7208714120E34208705755F05801278
:100A8300E4F55FE51B421C8017120E3430870975AD
:100A93005F0643F9807F0022E4F55FE51BF4521CF7
:100AA300120EB7E51BC313F51B80C043F980AF1CBF
:010AB3002220
:10000300C2877F04120E7FD2877F50120E68C28789
:100013007F04120E7F7F55120D32120F20020C76D1
:0607FB008B208A218922F7
:10080100ECF527EDF5287F96120CD91200037FA095
:10081100120D32120F20120D077F6C120D32120FC2
:1008210020120D07AF27120D32120F20120D07AF44
:1008310028120D32120F20120D07E4F526E526C30A
:1008410095255028AB20AA21A922852682758300EF
:10085100120797FF120D32E52514B52605120F2A4E
:100861008003120F20120D07052680D17F147E0010
:03087100020DABCA
:100CD9008F291200037FA0120D32120F20120D0767
:100CE900AF29120D32120F2A120D07E529646D6022
:0E0CF90005E529B467077F147E00120DAB22BB
:080AB4008F1A8E198D188C17A2
:100ABC0078181207D58F1BAF1AAE19AD18AC177872
:100ACC00101207D5AB07AF1AAE19AD18AC177808D2
:100ADC001207D5851A1C8F1D8B1E855B1F75650132
:100AEC007B007A00791C752504E4FDFC1207FB7F62
:040AFC0091020CD97E
:10043900E4F5651200037FA0120D32120F20120D90
:10044900077F03120D32120F20120D07E4FF120D60
:1004590032120F20120D07E4FF120D32120F201273
:100469000D07120A638F17120F20120D07120A6364
:100479008F18120F20120D07120A638F19120F20FD
:10048900120D07120A638F1A120F2A120D07851A05
:100499005BE4F51AAF19FCFDFE78101207E8C004F9
:1004A900C005C006C007AF1AE4FCFDFE78181207A4
:1004B900E8D003D002D001D000EF4BFFEE4AFEEDA9
:1004C90049FDEC48FCC004C005C006C007AF18E4EC
:1004D900FCFDFE78081207E8D003D002D001D00055
:1004E900EF4BFBEE4AFAED49F9EC48F8EB4517FFFB
:0604F900EAFEE9FDE8FC4B
:0104FF0022DA
:100C4100E5566030AF55AE54AD53AC52120AB412F2
:100C51000439AB55AA54A953A852C31207C470074B
:100C6100F556F560F561220560E560B41406E4F51A
:050C7100607561012225
:1003390000316253C4F5A697B988DBEA7D4C1F2EBC
:100349004372211087B6E5D4FACB98A93E0F5C6DAC
:1003590086B7E4D5427320113F0E5D6CFBCA99A89C
:10036900C5F4A796013063527C4D1E2FB889DAEB8C
:100379003D0C5F6EF9C89BAA84B5E6D7407122137C
:100389007E4F1C2DBA8BD8E9C7F6A594033261506C
:10039900BB8AD9E87F4E1D2C02336051C6F7A4955C
:1003A900F8C99AAB3C0D5E6F4170231285B4E7D64C
:1003B9007A4B1829BE8FDCEDC3F2A190073665543C
:1003C90039085B6AFDCC9FAE80B1E2D3447526172C
:1003D900FCCD9EAF38095A6B4574271681B0E3D21C
:1003E900BF8EDDEC7B4A192806376455C2F3A0910C
:1003F9004776251483B2E1D0FECF9CAD3A0B5869FC
:1004090004356657C0F1A293BD8CDFEE79481B2AEB
:10041900C1F0A3920534675678491A2BBC8DDEEFDB
:1004290082B3E0D1467724153B0A5968FFCE9DACCB
:0C095C00015800015700015A0101590028
:060D5B008B248A25892685
:100D6100E4FFAE051DEE6019AB240526E526AA2594
:100D71007002052514F912077E6F90033993FF80E5
:010D8100E190
:010D8200224E
:080656008B178A1889198D1A0F
:10065E00851A1CD2827F1E120E6853A8EF751B01DD
:10066E00E51A2401FFE433FEC3E51B9FEE6480F818
:10067E007480985020AB17AA18A91912077EFF7420
:10068E001C251BF8A60774012519F519E43518F574
:10069E0018051B80CB7B007A00791CE51A04FD122D
:1006AE000D5B741D251AF8A6077FA5120F0AE4F537
:1006BE001BE51A2402FFE433FEC3E51B9FEE6480A4
:1006CE00F8748098500E741C251BF8E6FF120F0A62
:1006DE00051B80DD7F5A120F0A43A8107F1E120ED3
:0306EE0068C2825D
:0106F10022E6
:100EA5007558017B007A00792CAD3E120D5BE4F597
:010EB50058E4
:010EB6002219
:100B4A00E53D603DE4F53D755801120EA5EF702EA6
:100B5A007F01E52C24FE601414601624F860172423
:100B6A00FC6018240E7017120BCA8012120EF48041
:100B7A000D120CA98008120EFF8003120B8CE4F5EB
:010B8A005812
:010B8B002247
:100BCA00AF558F09AF55AE54AD53AC5278081207E2
:100BDA00D58F0AAF55AE54AD53AC5278101207D523
:100BEA008F0BAF55AE54AD53AC5278181207D58F50
:0C0BFA000C7B007A0079097D040206568D
:0B0EF4007B007A0079577D0102065652
:100CA900856409E563F50AE564AE637810CEC3137C
:100CB900CE13D8F9F50BE564AE637818CEC313CE1D
:100CC90013D8F9F50C7B007A0079097D04020656E0
:0B0EFF007B007A00795B7D0102065643
:100B8C00852E5A852F46853041853159853251E560
:100B9C0046600CE5437004C2818006D2818002C29B
:100BAC0081855E0985620A855B0B854C0C85570D2A
:0E0BBC0085450E7B007A0079097D06020656FB
:09096800013B00013C00013D00CF
:100D8300D285D28243F92453F9BF53E4FC53F1DBF8
:100D930043F14053877F75985075D88075BA0375B2
:080DA300AAF3C28243A810224A
:0B0F0A008F99E59830E1FB5398FD2221
:030023000209B817
:1009B800C0E0C0D075D000C000309844C298E53C73
:1009C800700BE59964A57038753C018033E599642E
:1009D8005A6021E5587015E53BC3940F500E753DDC
:1009E80000742C253BF8A699053B8014753C0075CE
:1009F8003B00800C853B3E753C00753B00753D0116
:070A0800D000D0D0D0E03295
:0C097100015C00015D00015E00015B0004
:100C06007F021205B9C3EF9464EE94004009D3EF56
:100C16009468EE941040207F0A120E7F7F02120520
:100C2600B9C3EF9464EE94004009D3EF9468EE9450
:0A0C3600104007755C0122E4F55C34
:010C40002291
:100874007F011205B9D3EF9410EE940E4004755B1A
:100884000122C3EF940FEE940E500BEF9432EE94CA
:100894000B4003755B02C3EF9431EE940B500BEFE6
:1008A40094FFEE94074003755B03C3EF9430EE941A
:1008B4000B500BEF944CEE94044003755B04C3EFB0
:1008C4009464EE940050177F0A120E7F7F01120584
:1008D400B9C3EF9464EE94005007755D0122E4F50A
:0108E4005DB6
:0108E50022F0
:100E4E00120C06120874E55D7008E55C7004E5612D
:0A0E5E006004755E0122E4F55E22D7
:0F097D00045200000000015101014F00014E0023
:0B0F1500C287C28143F98253F17D22A4
:020026008F0B3E
:10002800E4F50EF50F751001751101F512F513F5CC
:1000380014751501E50BD39401400575160180036D
:10004800E4F5167B007A0079107D01120656E50B5F
:100058006067750CFF750DFAE4F50EE5127047E55B
:100068000D150D7002150CE590F430E0107F0A12A2
:100078000E7FE590F430E005E4F5158029E53D6054
:1000880011E4F53D120EA5EF7008E52CB4050375D3
:100098001201E50D450C70C3050E750CFF750DFAC0
:1000A800E50EB40FB622E4F512150BFB7A007915AC
:1000B8007D01120656E5157095E5166019E551B4EF
:1000C8000106AB157D018007E55125E0FDAB15AFB5
:1000D8000B120B00806DE55114B4080050659000B8
:1000E800F475F003A4C58325F0C5837302010C02DF
:1000F800011202011802011E02012402012A020152
:1001080030020136E55524028028E555240880226E
:10011800E555240C801CE55524108016E55524145B
:100128008010E555241E800AE55524288004E555ED
:100138002432F555E43554F554E43553F553E43594
:1001480052F552120439C3E5559FFFE5549EFEE56A
:10015800539DFDE5529CFCE47B41FAF9F8C3120774
:10016800C44020120439C3EF9555FFEE9554FEEDB7
:100178009553FDEC9552FCE47B41FAF9F8C312075C
:10018800C4500BAF55AE54AD53AC52120AB47F9F56
:100198007EBB7D0D7C00AB55AA54A953A852D3123F
:1001A80007C440037557017F3F7E427D0F7C00AB3B
:1001B80055AA54A953A852D31207C440087545013B
:1001C8007557098003E4F5457F037E00120DABAF38
:1001D80055AE54AD53AC52120AB4120439AB55AAF9
:1001E80054A953A852C31207C4601D054EAF55AE9B
:1001F80054AD53AC52120AB47F037E00120DABE526
:0B0208004EB414D6E4F54E22E4F55687
:0102130022C8
:100B0000EB7027EF14600D1460102402703BED753C
:100B1000F003801AED75F0028014AF05E4FCFDFED1
:100B2000E5552FF555EE35548013ED75F004A4FF0F
:100B3000AEF0E4FCFDE5552FF555E5543EF554EDDA
:0A0B40003553F553EC3552F55222FF
:10021400D282120EE7120F15120F34120ED7120DDE
:1002240083120E92120874C282754101D2817FE852
:100234007E03120DABC2811204398F558E548D5337
:100244008C52E55F60030203387F3F7E427D0FFCE2
:10025400AB55AA54A953A852D31207C440077545F5
:100264000175570922E4F5457F9F7EBB7D0DFCABEC
:1002740055AA54A953A852D31207C4400475570170
:10028400227FFF7E347D0C7C00AB55AA54A953A871
:1002940052D31207C44004755702227F5F7EAE7D9D
:1002A4000A7C00AB55AA54A953A852D31207C440E0
:1002B40004755703227FBF7E277D097C00AB55AAB6
:1002C40054A953A852C31207C44004755704227F8B
:1002D4001F7EA17D077C00AB55AA54A953A852C325
:1002E4001207C44004755705227F7F7E1A7D067C61
:1002F40000AB55AA54A953A852C31207C4400475AD
:100304005706227FDF7E937D047C00AB55AA54A957
:1003140053A852C31207C44004755707227F3F7E77
:100324000D7D037C00AB55AA54A953A852D31207E0
:05033400C4755708220A
:10098C00014000014700014400014300014D0001FA
:10099C003F00014800014B00014600014201014C9F
:0809AC000002490000014101B5
:0D0EE70053FAFE53F9FE53F2FE43F10122CF
:100DFF00E59025E05402FFE58054014FF4F540E5FE
:0A0E0F004065445540F54785404416
:010E190022B6
:10050000E55A60030205B8120DFFE590F420E00AF9
:10051000E5466006E56264056015E562B40306E53C
:10052000516409600AE562B40414E551B4090F0589
:100530004BE54BB4960BE4F54B63430180037543E5
:1005400001E544F430E119E53F70151208E6E54491
:1005500030E025E54730E020753F01754D018018FA
:10056000E544F430E1051208E68003E4F562E54471
:1005700020E005E4F54DF53FE546603CE55E70386A
:10058000E5457034E5627003D38001C3402AE5621B
:10059000B40503D38001C3401FE54114601424FE59
:1005A00060131460082402700F7F0180027F040230
:0905B0000A0F020DC7120DE3222F
:100A0F00E544F430E13FE542750902750A58054A9D
:100A1F00E54A70020549650A7004E54965097033B6
:100A2F00E50A24FFF54AE50934FFF549754C01E560
:100A3F00596020E4F542F559F54CF546F549F54A6C
:100A4F00C281020026E4F559F54CF562754201F5B5
:030A5F0049F54A0C
:010A62002271
:100DC700E54D6017754C01E5596010E4F54DF5598F
:0C0DD700F54CF546C2817F011200262277
:100DE300E54D6017754C01E5596010E4F54DF55973
:0C0DF300F54CF546C2817F041200262258
:0309B400016200DD
:1008E6007F031205B98E638F64C3E56494F9E563EB
:1008F600940D500DE564940FE5639406400375620C
:1009060001C3E5649478E5639405500DE564944766
:10091600E56394054003756203C3E56494E2E56309
:100926009404500DE56494B1E56394044003756244
:1009360004C3E56494E8E5639403500DE5649464A8
:0A094600E56394004003756205228A
:100E920075D20253FAE153F2E143D61E75D50775B6
:030EA200D4402217
:1005B9008FD243D280E4FC43D240E5D230E5FBAF91
:1005C900D3EC25E0240BF8760008A607E5D4540FF0
:1005D900FB7A00EC25E0240BF8E6FE08E6C4F854A3
:1005E9000FC868FFEEC454F048FEEF2BFFEA3EFE49
:1005F900EC25E0240BF8A60608A60753D2DF0CBCAD
:1006090005B553D27F7C01EC25E02409F8E6F5090C
:1006190008E6F50AEC14FDED25E02409F8E6FE08E4
:10062900E6FFC3E50A9FE5099E500EED25E0240B80
:10063900F8A60608A6071D80DEED25E0240BF8A61E
:0C0649000908A60A0CBC06BFAF10AE0FDB
:010655002282
:1006FE00020E1AE493A3F8E493A34003F68001F2EA
:10070E0008DFF48029E493A3F85407240CC8C333FC
:10071E00C4540F4420C8834004F456800146F6DFCB
:10072E00E4800B0102040810204080900950E47E02
:10073E00019360BCA3FF543F30E509541FFEE493C0
:10074E00A360010ECF54C025E060A840B8E493A387
:10075E00FAE493A3F8E493A3C8C582C8CAC583CAB2
:10076E00F0A3C8C582C8CAC583CADFE9DEE780BE6A
:0109B700003F
:10077E00BB010689828A83E0225002E722BBFE0279
:09078E00E32289828A83E49322AC
:10079700BB010CE58229F582E5833AF583E0225017
:1007A70006E92582F8E622BBFE06E92582F8E22261
:0D07B700E58229F582E5833AF583E493227B
:1007C400EB9FF5F0EA9E42F0E99D42F0E89C45F08B
:0107D4002202
:1007D500E8600FECC313FCED13FDEE13FEEF13FF02
:0307E500D8F12226
:1007E800E8600FEFC333FFEE33FEED33FDEC33FC6F
:0307F800D8F12213
:00000001FF
