:030000000206F302
:0C06F300787FE4F6D8FD75816502073AB7
:0A0FF600FFFFFFFFFFFFF05AA5AF59
:100E1A0075080975865A12021543A880120E4E12D9
:0A0E2A000501120B4A120C4180F280
:030950000165013D
:060E7F00AE071FEE600C3F
:0C0E8500E4F52AAE2A152AEE60F080F792
:010E9100223E
:060E6800AE071FEE601052
:0E0E6E00752A02AE2A152AEE60030080F600F7
:030E7C0080EA22E7
:100E3400C28CC28DE565B40105758CFC8003758C8C
:0A0E4400FDE4F58AD28C308DFD220A
:100EB700C28CC28D758CFE758AE0D28C308DFD2276
:100EC700C28CC28D758CFFE4F58AD28C308DFD22E1
:100DAB00EF1FAC0670011E4C600F758C83E4F58A47
:0C0DBB00D28C308DFDC28D80E7C28C22EE
:100ED700E4F58CF58A43890543E770C28DC28C22FD
:09095300015F0001610001600078
:090F3400D28753F17F43F98022BA
:0A0F2000C287120E34D287020E348D
:0A0F2A00D287120E34C287020E3483
:100D07007F12D28753F97F30870CDF05755F01802B
:100D170016E4F55F80F1120E34120E342087057544
:0A0D27005F028003E4F55F43F980EA
:010D3100229F
:100C76007F127E00D28753F97F208713EF1F700102
:100C86001EEF4E7005755F038015E4F55F80EA126E
:100C96000E34120E34208704755F0422E4F55F4398
:020CA600F980D3
:010CA8002229
:020D32008F2A06
:100D3400752B80E52B601F552A6009C287120E347B
:100D4400D2878007D287120E34C287120E34E52B65
:060D5400C313F52B80DD46
:010D5A002276
:100A6300751B80E4F51CD28753F97FE51B603C12AC
:100A73000EC7208714120E34208705755F05801278
:100A8300E4F55FE51B421C8017120E3430870975AD
:100A93005F0643F9807F0022E4F55FE51BF4521CF7
:100AA300120EB7E51BC313F51B80C043F980AF1CBF
:010AB3002220
:10000300C2877F04120E7FD2877F50120E68C28789
:100013007F04120E7F7F55120D32120F20020C76D1
:0607FC008B208A218922F6
:10080200ECF527EDF5287F96120CD91200037FA094
:10081200120D32120F20120D077F6C120D32120FC1
:1008220020120D07AF27120D32120F20120D07AF43
:1008320028120D32120F20120D07E4F526E526C309
:1008420095255028AB20AA21A922852682758300EE
:10085200120798FF120D32E52514B52605120F2A4C
:100862008003120F20120D07052680D17F147E000F
:03087200020DABC9
:100CD9008F291200037FA0120D32120F20120D0767
:100CE900AF29120D32120F2A120D07E529646D6022
:0E0CF90005E529B467077F147E00120DAB22BB
:080AB4008F1A8E198D188C17A2
:100ABC0078181207D68F1BAF1AAE19AD18AC177871
:100ACC00101207D6AB07AF1AAE19AD18AC177808D1
:100ADC001207D6851A1C8F1D8B1E855B1F75650131
:100AEC007B007A00791C752504E4FDFC1207FC7F61
:040AFC0091020CD97E
:10043A00E4F5651200037FA0120D32120F20120D8F
:10044A00077F03120D32120F20120D07E4FF120D5F
:10045A0032120F20120D07E4FF120D32120F201272
:10046A000D07120A638F17120F20120D07120A6363
:10047A008F18120F20120D07120A638F19120F20FC
:10048A00120D07120A638F1A120F2A120D07851A04
:10049A005BE4F51AAF19FCFDFE78101207E9C004F7
:1004AA00C005C006C007AF1AE4FCFDFE78181207A3
:1004BA00E9D003D002D001D000EF4BFFEE4AFEEDA7
:1004CA0049FDEC48FCC004C005C006C007AF18E4EB
:1004DA00FCFDFE78081207E9D003D002D001D00053
:1004EA00EF4BFBEE4AFAED49F9EC48F8EB4517FFFA
:0604FA00EAFEE9FDE8FC4A
:0105000022D8
:100C4100E5566030AF55AE54AD53AC52120AB412F2
:100C5100043AAB55AA54A953A852C31207C5700749
:100C6100F556F560F561220560E560B41406E4F51A
:050C7100607561012225
:10033A0000316253C4F5A697B988DBEA7D4C1F2EBB
:10034A004372211087B6E5D4FACB98A93E0F5C6DAB
:10035A0086B7E4D5427320113F0E5D6CFBCA99A89B
:10036A00C5F4A796013063527C4D1E2FB889DAEB8B
:10037A003D0C5F6EF9C89BAA84B5E6D7407122137B
:10038A007E4F1C2DBA8BD8E9C7F6A594033261506B
:10039A00BB8AD9E87F4E1D2C02336051C6F7A4955B
:1003AA00F8C99AAB3C0D5E6F4170231285B4E7D64B
:1003BA007A4B1829BE8FDCEDC3F2A190073665543B
:1003CA0039085B6AFDCC9FAE80B1E2D3447526172B
:1003DA00FCCD9EAF38095A6B4574271681B0E3D21B
:1003EA00BF8EDDEC7B4A192806376455C2F3A0910B
:1003FA004776251483B2E1D0FECF9CAD3A0B5869FB
:10040A0004356657C0F1A293BD8CDFEE79481B2AEA
:10041A00C1F0A3920534675678491A2BBC8DDEEFDA
:10042A0082B3E0D1467724153B0A5968FFCE9DACCA
:0C095C00015800015700015A0101590028
:060D5B008B248A25892685
:100D6100E4FFAE051DEE6019AB240526E526AA2594
:100D71007002052514F912077F6F90033A93FF80E3
:010D8100E190
:010D8200224E
:080657008B178A1889198D1A0E
:10065F00851A1CD2827F1E120E6853A8EF751B01DC
:10066F00E51A2401FFE433FEC3E51B9FEE6480F817
:10067F007480985020AB17AA18A91912077FFF741E
:10068F001C251BF8A60774012519F519E43518F573
:10069F0018051B80CB7B007A00791CE51A04FD122C
:1006AF000D5B741D251AF8A6077FA5120F0AE4F536
:1006BF001BE51A2402FFE433FEC3E51B9FEE6480A3
:1006CF00F8748098500E741C251BF8E6FF120F0A61
:1006DF00051B80DD7F5A120F0A43A8107F1E120ED2
:0306EF0068C2825C
:0106F20022E5
:100EA5007558017B007A00792CAD3E120D5BE4F597
:010EB50058E4
:010EB6002219
:100B4A00E53D603DE4F53D755801120EA5EF702EA6
:100B5A007F01E52C24FE601414601624F860172423
:100B6A00FC6018240E7017120BCA8012120EF48041
:100B7A000D120CA98008120EFF8003120B8CE4F5EB
:010B8A005812
:010B8B002247
:100BCA00AF558F09AF55AE54AD53AC5278081207E2
:100BDA00D68F0AAF55AE54AD53AC5278101207D621
:100BEA008F0BAF55AE54AD53AC5278181207D68F4F
:0C0BFA000C7B007A0079097D040206578C
:0B0EF4007B007A0079577D0102065751
:100CA900856409E563F50AE564AE637810CEC3137C
:100CB900CE13D8F9F50BE564AE637818CEC313CE1D
:100CC90013D8F9F50C7B007A0079097D04020657DF
:0B0EFF007B007A00795B7D0102065742
:100B8C00852E5A852F46853041853159853251E560
:100B9C0046600CE5437004C2818006D2818002C29B
:100BAC0081855E0985620A855B0B854C0C85570D2A
:0E0BBC0085450E7B007A0079097D06020657FA
:09096800013B00013C00013D00CF
:100D8300D285D28243F92453F9BF53E4FC53F1DBF8
:100D930043F14053877F75985075D88075BA0375B2
:080DA300AAF3C28243A810224A
:0B0F0A008F99E59830E1FB5398FD2221
:030023000209B817
:1009B800C0E0C0D075D000C000309844C298E53C73
:1009C800700BE59964A57038753C018033E599642E
:1009D8005A6021E5587015E53BC3940F500E753DDC
:1009E80000742C253BF8A699053B8014753C0075CE
:1009F8003B00800C853B3E753C00753B00753D0116
:070A0800D000D0D0D0E03295
:0C097100015C00015D00015E00015B0004
:100C06007F021205BAC3EF9464EE94004009D3EF55
:100C16009468EE941040207F0A120E7F7F02120520
:100C2600BAC3EF9464EE94004009D3EF9468EE944F
:0A0C3600104007755C0122E4F55C34
:010C40002291
:100875007F011205BAD3EF9410EE940E4004755B18
:100885000122C3EF940FEE940E500BEF9432EE94C9
:100895000B4003755B02C3EF9431EE940B500BEFE5
:1008A50094FFEE94074003755B03C3EF9430EE9419
:1008B5000B500BEF944CEE94044003755B04C3EFAF
:1008C5009464EE940050177F0A120E7F7F01120583
:1008D500BAC3EF9464EE94005007755D0122E4F508
:0108E5005DB5
:0108E60022EF
:100E4E00120C06120875E55D7008E55C7004E5612C
:0A0E5E006004755E0122E4F55E22D7
:0F097D00045200000000015101014F00014E0023
:0B0F1500C287C28143F98253F17D22A4
:020026008F0B3E
:10002800E4F50EF50F751001751101F512F513F5CC
:1000380014751501E50BD39401400575160180036D
:10004800E4F5167B007A0079107D01120657E50B5E
:100058006067750CFF750DFAE4F50EE5127047E55B
:100068000D150D7002150CE590F430E0107F0A12A2
:100078000E7FE590F430E005E4F5158029E53D6054
:1000880011E4F53D120EA5EF7008E52CB4050375D3
:100098001201E50D450C70C3050E750CFF750DFAC0
:1000A800E50EB40FB622E4F512150BFB7A007915AC
:1000B8007D01120657E5157095E516601AE551B4ED
:1000C8000106AB157D018008E5511425E0FDAB154F
:1000D800AF0B120B00806DE55114B4080050659009
:1000E80000F575F003A4C58325F0C5837302010DDF
:1000F80002011302011902011F02012502012B024C
:100108000131020137E55524028028E5552408808D
:1001180022E555240C801CE55524108016E555244D
:10012800148010E555241E800AE55524288004E52E
:10013800552432F555E43554F554E43553F553E474
:100148003552F55212043AC3E5559FFFE5549EFE19
:10015800E5539DFDE5529CFCE47B41FAF9F8C31296
:1001680007C5402012043AC3EF9555FFEE9554FE9B
:10017800ED9553FDEC9552FCE47B41FAF9F8C31276
:1001880007C5500BAF55AE54AD53AC52120AB47FED
:100198009F7EBB7D0D7C00AB55AA54A953A852D3B2
:1001A8001207C540037557017F3F7E427D0F7C00D3
:1001B800AB55AA54A953A852D31207C54008754590
:1001C800017557098003E4F5457F037E00120DABE6
:1001D800AF55AE54AD53AC52120AB412043AAB55F3
:1001E800AA54A953A852C31207C5601D054EAF559E
:1001F800AE54AD53AC52120AB47F037E00120DAB5D
:0C020800E54EB414D6E4F54E22E4F556A1
:0102140022C7
:100B0000EB7027EF14600D1460102402703BED753C
:100B1000F003801AED75F0028014AF05E4FCFDFED1
:100B2000E5552FF555EE35548013ED75F004A4FF0F
:100B3000AEF0E4FCFDE5552FF555E5543EF554EDDA
:0A0B40003553F553EC3552F55222FF
:10021500D282120EE7120F15120F34120ED7120DDD
:1002250083120E92120875C282754101D2817FE850
:100235007E03120DABC28112043A8F558E548D5335
:100245008C52E55F60030203397F3F7E427D0FFCE0
:10025500AB55AA54A953A852D31207C540077545F3
:100265000175570922E4F5457F9F7EBB7D0DFCABEB
:1002750055AA54A953A852D31207C540047557016E
:10028500227FFF7E347D0C7C00AB55AA54A953A870
:1002950052D31207C54004755702227F5F7EAE7D9B
:1002A5000A7C00AB55AA54A953A852D31207C540DE
:1002B50004755703227FBF7E277D097C00AB55AAB5
:1002C50054A953A852C31207C54004755704227F89
:1002D5001F7EA17D077C00AB55AA54A953A852C324
:1002E5001207C54004755705227F7F7E1A7D067C5F
:1002F50000AB55AA54A953A852C31207C5400475AB
:100305005706227FDF7E937D047C00AB55AA54A956
:1003150053A852C31207C54004755707227F3F7E75
:100325000D7D037C00AB55AA54A953A852D31207DF
:05033500C57557082208
:10098C00014000014700014400014300014D0001FA
:10099C003F00014800014B00014600014201014C9F
:0809AC000002490000014101B5
:0D0EE70053FAFE53F9FE53F2FE43F10122CF
:100DFF00E59025E05402FFE58054014FF4F540E5FE
:0A0E0F004065445540F54785404416
:010E190022B6
:10050100E55A60030205B9120DFFE590F420E00AF7
:10051100E5466006E56264056015E562B40306E53B
:10052100516409600AE562B40414E551B4090F0588
:100531004BE54BB4960BE4F54B63430180037543E4
:1005410001E544F430E119E53F70151208E7E5448F
:1005510030E025E54730E020753F01754D018018F9
:10056100E544F430E1051208E78003E4F562E5446F
:1005710020E005E4F54DF53FE546603CE55E703869
:10058100E5457034E5627003D38001C3402AE5621A
:10059100B40503D38001C3401FE54114601424FE58
:1005A10060131460082402700F7F0180027F04022F
:0905B1000A0F020DC7120DE3222E
:100A0F00E544F430E13FE542750902750A58054A9D
:100A1F00E54A70020549650A7004E54965097033B6
:100A2F00E50A24FFF54AE50934FFF549754C01E560
:100A3F00596020E4F542F559F54CF546F549F54A6C
:100A4F00C281020026E4F559F54CF562754201F5B5
:030A5F0049F54A0C
:010A62002271
:100DC700E54D6017754C01E5596010E4F54DF5598F
:0C0DD700F54CF546C2817F011200262277
:100DE300E54D6017754C01E5596010E4F54DF55973
:0C0DF300F54CF546C2817F041200262258
:0309B400016200DD
:1008E7007F031205BA8E638F64C3E56494F9E563E9
:1008F700940D500DE5649424E563940640037562F6
:1009070001C3E5649423E5639406500EC3E564943C
:10091700F0E56394044003756203C3E56494EFE56F
:10092700639404500EC3E564945CE5639404400348
:10093700756204C3E564945BE5639404500AC3E5F8
:090947006394004003756205226F
:100E920075D20253FAE153F2E143D61E75D50775B6
:030EA200D4402217
:1005BA008FD243D280E4FC43D240E5D230E5FBAF90
:1005CA00D3EC25E0240BF8760008A607E5D4540FEF
:1005DA00FB7A00EC25E0240BF8E6FE08E6C4F854A2
:1005EA000FC868FFEEC454F048FEEF2BFFEA3EFE48
:1005FA00EC25E0240BF8A60608A60753D2DF0CBCAC
:10060A0005B553D27F7C01EC25E02409F8E6F5090B
:10061A0008E6F50AEC14FDED25E02409F8E6FE08E3
:10062A00E6FFC3E50A9FE5099E500EED25E0240B7F
:10063A00F8A60608A6071D80DEED25E0240BF8A61D
:0C064A000908A60A0CBC06BFAF10AE0FDA
:010656002281
:1006FF00020E1AE493A3F8E493A34003F68001F2E9
:10070F0008DFF48029E493A3F85407240CC8C333FB
:10071F00C4540F4420C8834004F456800146F6DFCA
:10072F00E4800B0102040810204080900950E47E01
:10073F00019360BCA3FF543F30E509541FFEE493BF
:10074F00A360010ECF54C025E060A840B8E493A386
:10075F00FAE493A3F8E493A3C8C582C8CAC583CAB1
:10076F00F0A3C8C582C8CAC583CADFE9DEE780BE69
:0109B700003F
:10077F00BB010689828A83E0225002E722BBFE0278
:09078F00E32289828A83E49322AB
:10079800BB010CE58229F582E5833AF583E0225016
:1007A80006E92582F8E622BBFE06E92582F8E22260
:0D07B800E58229F582E5833AF583E493227A
:1007C500EB9FF5F0EA9E42F0E99D42F0E89C45F08A
:0107D5002201
:1007D600E8600FECC313FCED13FDEE13FEEF13FF01
:0307E600D8F12225
:1007E900E8600FEFC333FFEE33FEED33FDEC33FC6E
:0307F900D8F12212
:00000001FF
