:0300000002037E7A
:0C037E00787FE4F6D8FD7581280203C5E5
:0A0FF600FFFFFFFFFFFFF05AA5AF59
:10040A000415001A5E00041F0002A300012800015F
:10041A000900010800010A00041100000000042478
:10042A0001A39DE0012300020B0F0002192580029F
:0F043A000D0F00021B1E00020F0F00021D168087
:10000300120477C29143FA0253FAFB43F20453FA00
:10001300EF43F210C290C280C28543FA0143F92133
:10002300E4FFFEFDFCAB27AA26A925A824C31204DE
:1000330066700CF509C280C285C290C291F5283062
:100043009403750A01209472E50A6401706C7F02BF
:10005300FE12044A20945CE50A64017056F50AE531
:10006300097043752801D2917527E075269D752582
:10007300A375240175090175145C75133875120293
:10008300F511750B0FF50C751925751A80750D0F84
:10009300F50E751B1EF51C750F0FF510751D1675E6
:1000A3001E80F523800DE4F509C290C285C280C28B
:1000B30091F5287F647E0012044AE5096401600318
:1000C300020023E52724FFF527E52634FFF526E57F
:1000D3002534FFF525E52434FFF524309203750814
:1000E30001209234E5086401702E7F02FE12044A57
:1000F300209216E508B401117527E075269D752534
:10010300A3752401E4F5080528E528B4040375283C
:10011300017F647E0012044AE4FFFEFDFCAB14AAD7
:1001230013A912A811C31204666021E51424FFF574
:1001330014E51334FFF513E51234FFF512E511341A
:10014300FFF5117F027E0012044A8003752301E547
:100153002824FE600F14601424027018D290C28504
:10016300C2808018C290D285C2808010C290C2859E
:10017300D2808008C280C285C290C291E523640107
:100183006003020023E52824FE6079147003020251
:100193007224026003020357750D0F750E00751B61
:1001A3001E751C00750F0F751000751D16751E80CA
:1001B300E50C450B6011D291E50C150C7002150B83
:1001C3007F017E0012044AE51A45196017E50C45C4
:1001D3000B7011C291E51A151A700215197F017E71
:1001E3000012044AE50C450B6003020023E51A459F
:1001F300196003020023750B0FF50C751925751A89
:1002030080020023750B0F750C00751925751A8074
:10021300750F0F751000751D16751E80E50E450DC3
:100223006011D291E50E150E7002150D7F017E004F
:1002330012044AE51C451B6017E50E450D7011E5D8
:100243001C151C7002151BC2917F017E0012044A0B
:10025300E50E450D6003020023E51C451B60030208
:100263000023750D0FF50E751B1EF51C020023757B
:100273000B0F750C00751925751A80750D0F750E0A
:1002830000751B1E751C00E4FFFEFDFCAB18AA17CE
:10029300A916A815C3120466704EC291E52224FF65
:1002A300F522E52134FFF521E52034FFF520E51F94
:1002B30034FFF51F7F017E0012044AE4FFFEFDFCBC
:1002C300AB22AA21A920A81FC3120466600302005F
:1002D30023F51875175E75161AF515F5227521A302
:1002E300752002F51F020023E51824FFF518E51712
:1002F30034FFF517E51634FFF516E51534FFF5154C
:10030300E510450F6011D291E51015107002150F1D
:100313007F017E0012044AE51E451D6017E5104566
:100323000F7011E51E151E7002151DC2917F017E0F
:100333000012044AE510450F6003020023E51E4541
:100343001D6003020023750F0FF510751D16751E32
:1003530080020023750B0F750C00751925751A8023
:10036300750D0F750E00751B1E751C00750F0F752F
:0B0373001000751D16751E800200238F
:10044A00EF1FAC0670011E4C600F758C83E4F58AB1
:0C045A00D28C308DFDC28D80E7C28C2258
:10047700E4F58CF58A43890543E770C28DC28C2267
:10038A00020003E493A3F8E493A34003F68001F286
:10039A0008DFF48029E493A3F85407240CC8C33374
:1003AA00C4540F4420C8834004F456800146F6DF43
:1003BA00E4800B010204081020408090040AE47EC5
:1003CA00019360BCA3FF543F30E509541FFEE49338
:1003DA00A360010ECF54C025E060A840B8E493A3FF
:1003EA00FAE493A3F8E493A3C8C582C8CAC583CA2A
:1003FA00F0A3C8C582C8CAC583CADFE9DEE780BEE2
:0104490000B2
:10046600EB9FF5F0EA9E42F0E99D42F0E89C45F0EC
:010476002263
:00000001FF
