:1008020043B12053B2DF43B14053B2BF43B340536D
:10081200B4BF53B1EF43B21053B1FE43B20153B16F
:10082200F743B20853B17F43B28053ACFE43AD01EC
:1008320053B3FE43B40153B3FD43B40253B3FB437A
:10084200B40453B3F743B40853B3EF43B41053B3F0
:10085200DF43B42053B37F43B48053B1FE43B201AC
:1008620053B1FD43B202D287D281C297C283C290F2
:10087200C280C291759501538EFD12002E120AC6D6
:09088200120ABB12096B80FE2270
:09000E0001350101380101450131
:03000B0002037E6F
:10037E00C0E0C0F0C083C082C0D075D000C000C045
:10038E0001C002C003C004C005C006C007C28C85F0
:10039E003B8C853E8A308603753501309603753861
:1003AE0001D28E3086030204BD0544E5446402602A
:1003BE00030204BDF544F546F547753901F536F5EA
:1003CE0037E535B401080532753500754501E5325E
:1003DE0064017041D2CA754101753F0112001EC2FF
:1003EE00B0752B00753D01D295D293D292D280D2A8
:1003FE0090D291A2AF9200C2AF75C7AA75C75543EE
:10040E00910143C60275C7AA75C7555391FEA20046
:10041E0092AF120AC1E532B40214754101753F0262
:10042E0012006CC292D295D293D2B0120AC1E532AA
:10043E00B4031A753600753700754101753F021207
:10044E000076C293D295D292D2B0120AC1E532B4DE
:10045E000414754101753F02120A9AC295D293D2C5
:10046E0092D2B0120AC1E53264057043F541753F70
:10047E0003D2B0D292D293D295C280C290C29112C0
:10048E000AC6753200A2AF9200C2AF75C7AA75C771
:10049E005543910153C6FD75C7AA75C7555391FEB5
:1004AE00A20092AF53B3EF43B410C294120ABB3002
:1004BE0096030205900530E5306402600302059054
:1004CE00F530F546F547E5417003020590753902A2
:1004DE00E538B40108053D753800754501753600DF
:1004EE00753700E53DB40112753F04D280D290D22B
:1004FE0091752B00753400120ABBE53DB4020E75E2
:10050E003F04752B01753400D2CA120ABBE53DB407
:10051E000312753F04752B00753400D291C290C240
:10052E0080120ABBE53DB40412753F04752B0075AD
:10053E003400D290C291C280120ABBE53DB40512BE
:10054E00753F04752B00753400D280C291C2901293
:10055E000ABBE53DB40611D2CA753F04752B0112D4
:10056E000A0CC280C291C290E53DB40715753D00DC
:10057E00753F04752B00753400C280C290C2911273
:10058E000ABBD28CE5397004C2CA8002D2CAD00727
:10059E00D006D005D004D003D002D001D000D0D0E8
:0905AE00D082D083D0F0D0E032FD
:03001B000200865A
:10008600C0E0C0F0C083C082C0D075D000C000C040
:1000960001C002C003C004C005C006C007E5457024
:1000A60003020363C28EE53A7006852A8B85488D66
:1000B600E53F64016003020186753A0185488D8536
:1000C6002A8B0543E54370020542C3E542940A5074
:1000D60004C28C8002D28CC3E54394F4E5429401B9
:1000E600500E7548FF752A63852A8B85488DB29711
:1000F600C3E54394D4E54294035012E54394F4E5F2
:1001060042940140087548FF752A6CB297C3E543CF
:1001160094A9E54294055012E54394D3E54294032D
:1001260040087548FF752A7DB297C3E54394BAE542
:100136004294075012E54394A8E542940540087599
:1001460048FF752A8DB297C3E5439409E542940AA0
:100156005012E54394B9E542940740087548FF7587
:100166002A9BB297D3E5439409E542940A40117558
:100176003F00C2977542007543007533017545000F
:10018600E53F6402703D753A0185488D852A8B05E9
:1001960043E54370020542C3E5439411E5429402E8
:1001A60050087548FF752A8DB297D3E5439411E53B
:1001B600429402400E753F00C29775420075430097
:1001C600754500E53F640360030202D0753A018578
:1001D600488D852A8B0543E54370020542C3E543F6
:1001E6009458E54294095004C28C8002D28CC3E52F
:1001F60043944FE542940250087548FF752A9BB216
:1002060097C3E5439460E54294045012E543944F46
:10021600E542940240087548FF752A8DB297C3E5FA
:10022600439435E54294065012E5439460E54294C2
:100236000440087548FF752A7DB297C3E54394D7F5
:10024600E54294075012E5439435E542940640088A
:100256007548FF752A6CB297C3E5439462E54294EC
:10026600095012E54394D7E542940740087548FFC4
:10027600752A63B297D3E5439461E5429409404AEF
:10028600754500753F00C297754200754300C28CE4
:10029600C28EC2CA53C4F7120AC6A2AF9200C2AF38
:1002A60075C7AA75C75543910153C6FD75C7AA758B
:1002B600C7555391FEA20092AF53B3EF43B410C299
:1002C60094C284C287C281753900E53F6404703DDB
:1002D60085488D852A8B753A010543E543700205ED
:1002E60042C3E54394D5E542940150087548FF752D
:1002F6002A89B297D3E54394D5E5429401400E7519
:100306004500753F00C297754200754300E53F649E
:1003160005704285488D852A8B753A01E52F703523
:100326000543E54370020542C3E54394A2E54294C2
:100336000150147548FF752A9BB297E5416004D2B7
:10034600CA8012C2CA800E753F00752F0175420021
:10035600754300C297D28EE53F7002F53AD007D0BA
:1003660006D005D004D003D002D001D000D0D0D022
:0803760082D083D0F0D0E03208
:03002B0002069832
:10069800C0E0C0F0C083C082C0D075D000C000C028
:1006A80001C002C003C004C005C006C007C2CF0510
:1006B80047E547700205460537E53770020536E518
:1006C8002BB40106B280B290B291E5376464453626
:1006D8007011754501F536F537753F05C29743C466
:1006E80008F52FD3E5479470E546941740577545AC
:1006F80001754100753900753F037546007547005F
:10070800753200753000C2CA53C4F7D295D293D25D
:1007180092D2B0C280C290C291120AC6A2AF920011
:10072800C2AF75C7AA75C75543910153C6FD75C7B2
:10073800AA75C7555391FEA20092AF53B3EF43B4C5
:1007480010C294C284D007D006D005D004D003D0FC
:1007580002D001D000D0D0D082D083D0F0D0E03207
:03008300020A70FE
:090A7000C0E0C0D075D000C00741
:100A790053C4EF752800752900E4FFEFC3940850AB
:0A0A8900030F80F753C4F743E101A7
:070A9300D007D0D0D0E03203
:10096B005389F043890153890F43891053C8FE43C0
:10097B00C98043C90843C93053C9BF53C4FB43C4DF
:10098B000243C401753B7D753ECB753C7D7540CBF9
:10099B00853C4885402A75CB9E75CA5875C63C75F3
:1009AB00C5B0853E8A853B8C85408B853C8D538EAF
:1009BB00F7538EEFD2A9D2AB439B80439C02D2AFAD
:0A09CB00D28CD28EC2CA53C4F722A8
:100A3F0053E8F043E80443B12053B2DFE4F5F64343
:100A4F00F61043E101C2EFD2EE30EFFDE5C2540FD5
:100A5F00FDAFC3EF75F010A4FFAEF02DFFE43EFE27
:010A6F002264
:10002E0053B3EF43B410C294A2AF9200C2AF75C7E0
:10003E00AA75C75543910143C60875C7AA75C7551A
:10004E005391FEA20092AF43DE2053DF3F538EBF8B
:0E005E00E4F5D175D9DDF5D375DB6ED2DC2269
:100A0C0043DE20A2AF9200C2AF75C7AA75C755438B
:100A1C009101A20092AFE4F5C575CD80A2AF920012
:100A2C00C2AF75C7AA75C7555391FEA20092AF12FB
:030A3C000AC122CA
:060ABB0053DEDFC28322BE
:0A001E00E4F5D575DD32120AC122A7
:0A006C00E4F5D575DD14120AC12277
:0A007600E4F5D575DD0A120AC12277
:090A9A00E4F5D5F5DD120AC122D4
:050AC100D2DED2DF22AD
:050AC600C2DEC2DF22C8
:1009D50053B1BF53B2BF53B17F53B27F75985243E2
:1009E5008920438780438E1053C4DFAB07AA06A92D
:1009F50005A8047F407E427D0F7C001205F3EF04BD
:070A0500F404F58DD28E22EE
:10088B008F4C8E4B8D4A8C4953B1BF53B2BF53B172
:10089B007F53B27F75985243878053C4F843C4206B
:1008AB00AB4CAA4BA94AA8497F407E427D0F7C00E6
:1008BB001205F3C374FF9FFF74FF9EFEE49DFDE4DE
:1008CB009CFC78081206858FC6AB4CAA4BA94AA88C
:1008DB00497F407E427D0F7C001205F3C374FF9F5E
:1008EB00FF74FF9EFEE49DFDE49CFCEFE48FC5438B
:0308FB00C408220C
:070003003098FDAF99C2988F
:01000A0022D3
:080AA300C2998F993099FD22E0
:1008FE008F508E4F8D4E8C4D53B1FB53B2FB53B375
:10090E00BF53B4BF75F85253C4F8AB50AA4FA94E9B
:10091E00A84D7F407E427D0F7C001205F3C374FF0D
:10092E009FFF74FF9EFEE49DFDE49CFC780812067A
:10093E00858FC6AB50AA4FA94EA84D7F407E427DF3
:10094E000F7C001205F3C374FF9FFF74FF9EFEE43D
:0D095E009DFDE49CFCEFE48FC543C408221E
:070AAB0030F8FDAF9AC2F81C
:010AB2002221
:080AB300C2F98F9A30F9FD220F
:030000000207688C
:10076800787FE4F6D8FD9000007FFF7E03E4F0A3D5
:0A077800DFFCDEFA7581500207BDB8
:10078200020802E493A3F8E493A34003F68001F283
:1007920008DFF48029E493A3F85407240CC8C33378
:1007A200C4540F4420C8834004F456800146F6DF47
:1007B200E4800B010204081020408090000EE47EC9
:1007C200019360BCA3FF543F30E509541FFEE4933C
:1007D200A360010ECF54C025E060A840B8E493A303
:1007E200FAE493A3F8E493A3C8C582C8CAC583CA2E
:1007F200F0A3C8C582C8CAC583CADFE9DEE780BEE6
:0100170000E8
:1005B70075F008758200EF2FFFEE33FECD33CDCCFB
:1005C70033CCC58233C5829BED9AEC99E58298407E
:1005D7000CF582EE9BFEED9AFDEC99FC0FD5F0D65B
:1005E700E4CEFBE4CDFAE4CCF9A88222B800C1B985
:1005F7000059BA002DEC8BF084CFCECDFCE5F0CBC3
:10060700F97818EF2FFFEE33FEED33FDEC33FCEBFB
:1006170033FB10D703994004EB99FB0FD8E5E4F9B6
:10062700FA227818EF2FFFEE33FEED33FDEC33FCA3
:10063700C933C910D7059BE99A4007EC9BFCE99A97
:10064700F90FD8E0E4C9FAE4CCFB2275F010EF2FDC
:10065700FFEE33FEED33FDCC33CCC833C810D707DC
:100667009BEC9AE899400AED9BFDEC9AFCE899F817
:0E0677000FD5F0DAE4CDFBE4CCFAE4C8F922AA
:10068500E8600FECC313FCED13FDEE13FEEF13FF53
:03069500D8F12277
:00000001FF
