:1008050043B12053B2DF43B14053B2BF43B340536A
:10081500B4BF53B1EF43B21053B1FE43B20153B16C
:10082500F743B20853B17F43B28053ACFE43AD01E9
:1008350053B3FE43B40153B3FD43B40253B3FB4377
:10084500B40453B3F743B40853B3EF43B41053B3ED
:10085500DF43B42053B37F43B48053B1FE43B201A9
:1008650053B1FD43B202D287D281C297C283C290EF
:10087500C280C291759501538EFD12002E120AC9D0
:09088500120ABE12096E80FE2267
:09000E0001350101380101450131
:03000B0002037E6F
:10037E00C0E0C0F0C083C082C0D075D000C000C045
:10038E0001C002C003C004C005C006C007C28C85F0
:10039E003B8C853E8A308603753501309603753861
:1003AE0001D28E3086030204C00544E54464026027
:1003BE00030204C0F544F546F547753901F536F5E7
:1003CE0037E535B401080532753500754501E5325E
:1003DE0064017041D2CA754101753F0112001EC2FF
:1003EE00B0752B00753D01D295D293D292D280D2A8
:1003FE0090D291A2AF9200C2AF75C7AA75C75543EE
:10040E00910143C60275C7AA75C7555391FEA20046
:10041E0092AF120AC4E532B40214754101753F025F
:10042E0012006CC292D295D293D2B0120AC4E532A7
:10043E00B4031A753600753700754101753F021207
:10044E000076C293D295D292D2B0120AC4E532B4DB
:10045E000414754101753F02120A9DC295D293D2C2
:10046E0092D2B0120AC4E53264057046F541753F6A
:10047E0003D2B0D292D293D295C280C290C29112C0
:10048E000AC9753200A2AF9200C2AF75C7AA75C76E
:10049E005543910153C6FD75C7AA75C7555391FEB5
:1004AE00A20092AF53B3EF43B410C294752B001257
:1004BE000ABE3096030205930530E53064026003F0
:1004CE00020593F530F546F547E5417003020593B5
:1004DE00753902E538B40108053D753800754501DA
:1004EE00753600753700E53DB40112753F04D280B4
:1004FE00D290D291752B00753400120ABEE53DB430
:10050E00020E753F04752B01753400D2CA120ABE55
:10051E00E53DB40312753F04752B00753400D2917E
:10052E00C290C280120ABEE53DB40412753F047536
:10053E002B00753400D290C291C280120ABEE53DE6
:10054E00B40512753F04752B00753400D280C2912C
:10055E00C290120ABEE53DB40611D2CA753F0475AB
:10056E002B01120A0FC280C291C290E53DB407154D
:10057E00753D00753F04752B00753400C280C29026
:10058E00C291120ABED28CE5397004C2CA8002D260
:10059E00CAD007D006D005D004D003D002D001D0E7
:0C05AE0000D0D0D082D083D0F0D0E0325A
:03001B000200865A
:10008600C0E0C0F0C083C082C0D075D000C000C040
:1000960001C002C003C004C005C006C007E5457024
:1000A60003020363C28EE53A7006852A8B85488D66
:1000B600E53F64016003020186753A0185488D8536
:1000C6002A8B0543E54370020542C3E542940A5074
:1000D60004C28C8002D28CC3E54394F4E5429401B9
:1000E600500E7548FF752A63852A8B85488DB29711
:1000F600C3E54394D4E54294035012E54394F4E5F2
:1001060042940140087548FF752A6CB297C3E543CF
:1001160094A9E54294055012E54394D3E54294032D
:1001260040087548FF752A7DB297C3E54394BAE542
:100136004294075012E54394A8E542940540087599
:1001460048FF752A8DB297C3E5439409E542940AA0
:100156005012E54394B9E542940740087548FF7587
:100166002A9BB297D3E5439409E542940A40117558
:100176003F00C2977542007543007533017545000F
:10018600E53F6402703D753A0185488D852A8B05E9
:1001960043E54370020542C3E5439411E5429402E8
:1001A60050087548FF752A8DB297D3E5439411E53B
:1001B600429402400E753F00C29775420075430097
:1001C600754500E53F640360030202D0753A018578
:1001D600488D852A8B0543E54370020542C3E543F6
:1001E6009458E54294095004C28C8002D28CC3E52F
:1001F60043944FE542940250087548FF752A9BB216
:1002060097C3E5439460E54294045012E543944F46
:10021600E542940240087548FF752A8DB297C3E5FA
:10022600439435E54294065012E5439460E54294C2
:100236000440087548FF752A7DB297C3E54394D7F5
:10024600E54294075012E5439435E542940640088A
:100256007548FF752A6CB297C3E5439462E54294EC
:10026600095012E54394D7E542940740087548FFC4
:10027600752A63B297D3E5439461E5429409404AEF
:10028600754500753F00C297754200754300C28CE4
:10029600C28EC2CA53C4F7120AC9A2AF9200C2AF35
:1002A60075C7AA75C75543910153C6FD75C7AA758B
:1002B600C7555391FEA20092AF53B3EF43B410C299
:1002C60094C284C287C281753900E53F6404703DDB
:1002D60085488D852A8B753A010543E543700205ED
:1002E60042C3E54394D5E542940150087548FF752D
:1002F6002A89B297D3E54394D5E5429401400E7519
:100306004500753F00C297754200754300E53F649E
:1003160005704285488D852A8B753A01E52F703523
:100326000543E54370020542C3E54394A2E54294C2
:100336000150147548FF752A9BB297E5416004D2B7
:10034600CA8012C2CA800E753F00752F0175420021
:10035600754300C297D28EE53F7002F53AD007D0BA
:1003660006D005D004D003D002D001D000D0D0D022
:0803760082D083D0F0D0E03208
:03002B0002069B2F
:10069B00C0E0C0F0C083C082C0D075D000C000C025
:1006AB0001C002C003C004C005C006C007C2CF050D
:1006BB0047E547700205460537E53770020536E515
:1006CB002BB40106B280B290B291E5376464453623
:1006DB007011754501F536F537753F05C29743C463
:1006EB0008F52FD3E5479470E546941740577545A9
:1006FB0001754100753900753F037546007547005C
:10070B00753200753000C2CA53C4F7D295D293D25A
:10071B0092D2B0C280C290C291120AC9A2AF92000B
:10072B00C2AF75C7AA75C75543910153C6FD75C7AF
:10073B00AA75C7555391FEA20092AF53B3EF43B4C2
:10074B0010C294C284D007D006D005D004D003D0F9
:10075B0002D001D000D0D0D082D083D0F0D0E03204
:03008300020A73FB
:090A7300C0E0C0D075D000C0073E
:100A7C0053C4EF752800752900E4FFEFC3940850A8
:0A0A8C00030F80F753C4F743E101A4
:070A9600D007D0D0D0E03200
:10096E005389F043890153890F43891053C8FE43BD
:10097E00C98043C90843C93053C9BF53C4FB43C4DC
:10098E000243C401753B7D753ECB753C7D7540CBF6
:10099E00853C4885402A75CB9E75CA5875C63C75F0
:1009AE00C5B0853E8A853B8C85408B853C8D538EAC
:1009BE00F7538EEFD2A9D2AB439B80439C02D2AFAA
:0A09CE00D28CD28EC2CA53C4F722A5
:100A420053E8F043E80443B12053B2DFE4F5F64340
:100A5200F61043E101C2EFD2EE30EFFDE5C2540FD2
:100A6200FDAFC3EF75F010A4FFAEF02DFFE43EFE24
:010A72002261
:10002E0053B3EF43B410C294A2AF9200C2AF75C7E0
:10003E00AA75C75543910143C60875C7AA75C7551A
:10004E005391FEA20092AF43DE2053DF3F538EBF8B
:0E005E00E4F5D175D9DDF5D375DB6ED2DC2269
:100A0F0043DE20A2AF9200C2AF75C7AA75C7554388
:100A1F009101A20092AFE4F5C575CD80A2AF92000F
:100A2F00C2AF75C7AA75C7555391FEA20092AF12F8
:030A3F000AC422C4
:060ABE0053DEDFC28322BB
:0A001E00E4F5D575DD32120AC422A4
:0A006C00E4F5D575DD14120AC42274
:0A007600E4F5D575DD0A120AC42274
:090A9D00E4F5D5F5DD120AC422CE
:050AC400D2DED2DF22AA
:050AC900C2DEC2DF22C5
:1009D80053B1BF53B2BF53B17F53B27F75985243DF
:1009E8008920438780438E1053C4DFAB07AA06A92A
:1009F80005A8047F407E427D0F7C001205F6EF04B7
:070A0800F404F58DD28E22EB
:10088E008F4C8E4B8D4A8C4953B1BF53B2BF53B16F
:10089E007F53B27F75985243878053C4F843C42068
:1008AE00AB4CAA4BA94AA8497F407E427D0F7C00E3
:1008BE001205F6C374FF9FFF74FF9EFEE49DFDE4D8
:1008CE009CFC78081206888FC6AB4CAA4BA94AA886
:1008DE00497F407E427D0F7C001205F6C374FF9F58
:1008EE00FF74FF9EFEE49DFDE49CFCEFE48FC54388
:0308FE00C4082209
:070003003098FDAF99C2988F
:01000A0022D3
:080AA600C2998F993099FD22DD
:100901008F508E4F8D4E8C4D53B1FB53B2FB53B371
:10091100BF53B4BF75F85253C4F8AB50AA4FA94E98
:10092100A84D7F407E427D0F7C001205F6C374FF07
:100931009FFF74FF9EFEE49DFDE49CFC7808120677
:10094100888FC6AB50AA4FA94EA84D7F407E427DED
:100951000F7C001205F6C374FF9FFF74FF9EFEE437
:0D0961009DFDE49CFCEFE48FC543C408221B
:070AAE0030F8FDAF9AC2F819
:010AB500221E
:080AB600C2F98F9A30F9FD220C
:0300000002076B89
:10076B00787FE4F6D8FD9000007FFF7E03E4F0A3D2
:0A077B00DFFCDEFA7581500207C0B2
:10078500020805E493A3F8E493A34003F68001F27D
:1007950008DFF48029E493A3F85407240CC8C33375
:1007A500C4540F4420C8834004F456800146F6DF44
:1007B500E4800B010204081020408090000EE47EC6
:1007C500019360BCA3FF543F30E509541FFEE49339
:1007D500A360010ECF54C025E060A840B8E493A300
:1007E500FAE493A3F8E493A3C8C582C8CAC583CA2B
:1007F500F0A3C8C582C8CAC583CADFE9DEE780BEE3
:0100170000E8
:1005BA0075F008758200EF2FFFEE33FECD33CDCCF8
:1005CA0033CCC58233C5829BED9AEC99E58298407B
:1005DA000CF582EE9BFEED9AFDEC99FC0FD5F0D658
:1005EA00E4CEFBE4CDFAE4CCF9A88222B800C1B982
:1005FA000059BA002DEC8BF084CFCECDFCE5F0CBC0
:10060A00F97818EF2FFFEE33FEED33FDEC33FCEBF8
:10061A0033FB10D703994004EB99FB0FD8E5E4F9B3
:10062A00FA227818EF2FFFEE33FEED33FDEC33FCA0
:10063A00C933C910D7059BE99A4007EC9BFCE99A94
:10064A00F90FD8E0E4C9FAE4CCFB2275F010EF2FD9
:10065A00FFEE33FEED33FDCC33CCC833C810D707D9
:10066A009BEC9AE899400AED9BFDEC9AFCE899F814
:0E067A000FD5F0DAE4CDFBE4CCFAE4C8F922A7
:10068800E8600FECC313FCED13FDEE13FEEF13FF50
:03069800D8F12274
:00000001FF
